:020000040800F2
:10000000D01E0020010100080501000807010008BA
:10001000090100080B0100080D01000800000000A4
:1000200000000000000000000000000011010008B6
:100030000F010008000000002F020008812B0008BB
:10004000EF3400084B280008E52B00082D29000894
:10005000A119000829290008FB1700087D180008CD
:100060007F1800088118000883180008ED170008A1
:10007000EF170008F1170008F3170008F51700083C
:10008000F7170008F91700083B130008EB340008C5
:10009000ED340008E9170008EB1700088518000880
:1000A000E72B0008ED2B0008EB2B0008E92B0008DC
:1000B000EF2B0008F12B00085D2E00087D1A0008C8
:1000C0007B1A0008811A00087F1A00088929000895
:1000D0008B2900086533000867330008693300087E
:1000E000FD1700082B290008E93400080000000073
:1000F0000000000000000000000000000000000000
:1001000004480047FEE7FEE7FEE7FEE7FEE7FEE7FE
:10011000FEE700001901000800F002F800F049F8BD
:100120000AA090E8000C82448344AAF10107DA4552
:1001300001D100F03EF8AFF2090EBAE80F0013F05B
:10014000010F18BFFB1A43F0010318474443000096
:1001500064430000103A24BF78C878C1FAD8520727
:1001600024BF30C830C144BF04680C607047000031
:100170000023002400250026103A28BF78C1FBD8B0
:10018000520728BF30C148BF0B607047662904F092
:100190003880002070471FB504F027F800F072FB8C
:1001A00004000020002103F03DFAE0601FBD10B5FF
:1001B00010BD00F095FC1146FFF7EDFF03F0F4F9D8
:1001C00000F0B3FC03B4FFF7F2FF03BC03F0CEF979
:1001D00002480349034A044B70470000D016002030
:1001E000D01E0020D01A0020D01A0020EFF310807B
:1001F00072B6704780F31088704724484FF0FF01B3
:100200000170002080F309881D48012101702048F9
:100210004FF08051016062B6FEE71D484FF08051FB
:10022000016070471A484FF0805101607047EFF34A
:10023000098028B1203880E8F00F12490968086069
:1002400000B50A4880475DF804EB0B480B490A7873
:1002500002700C480C490A680260106890E8F00FC0
:10026000203080F309884EF0040E704731210008D9
:10027000251B00088600002088000020890000203F
:100280008B000020A8000020B000002022ED00E03C
:1002900004ED00E072B6704762B67047EFF310806D
:1002A00072B6704780F31088704770470FB40449E6
:1002B00010B503AA029800F0D3FA10BC5DF814FB45
:1002C0006C00002070B50446856900683026C106C0
:1002D00000D42026C00708D070BDD4E901213046E3
:1002E0009047206A00F1010020626D1EF5D570BDB7
:1002F00070B5044685690068C00708D170BDD4E9AF
:10030000012120209047206A00F1010020626D1E2B
:10031000F5D570BD2DE9F05F4FF0000B044689461E
:100320004FF0010AC0F820B02046E168884798B332
:10033000252806D0D4E901219047206A401C20627C
:10034000F2E7E168204600268847C4F81CB005465D
:100350000027C4F818B02A2D0DD05246A5F130015F
:100360000A292ED2BAF1000F2BD0924604EB87084F
:10037000C8F818101AE059F8041B204604EB87024D
:100380009161E1688847012F05461CD1E06900288A
:1003900024DA26F0200621E048E0D8F8180000EB27
:1003A000800005EB40003038C8F818002046E168AE
:1003B0008847A0F1300105460A2902D2BAF1000FA0
:1003C000EBD1012F0AD02E2D08D12046E1688847B5
:1003D0007F1C0546022F46F02006BCDBA0690028E2
:1003E00003DA404246F00106A061F00701D026F092
:1003F0001006DDB1A5F14100192802D8203546F4D8
:1004000000664A462946204626604E46FFF7BEFE55
:1004100050B1012805D0F61D26F0070000F10809AB
:1004200082E706F104097FE7284683E7206ABDE8F2
:10043000F09F704770477047704710B500F028FA7A
:10044000006810BD10B5044600F022FA046010BD2B
:1004500070472DE9FF4F0C461E464FF0FF3789B01D
:10046000D2E90001DDF8588006908946C1F30A55AB
:1004700005B93D46002108464FF00000B9F1000FD4
:1004800000F4400005DA00EB80004FF4400101EA7F
:1004900050004FEA905ABAF1010F00DDBA460698B3
:1004A00050EA49002CD044F61050A5F2FF354543E0
:1004B000CAF1000008902F14B8F1000F39D075422E
:1004C000089A291E00DC524600DA694203A800F0AF
:1004D00081FA0699484600F075FB8DE80700A0F503
:1004E00000501F3800900398002D25DD42F21F01B7
:1004F0005246084403A90390684600F0D4FD24E066
:10050000B8F1010F4FF0000001D1F24307E03021B4
:1005100001E02154401CB042FBDB304600220021A8
:1005200021540999C1F80880C1E900200DB0BDE847
:10053000F08FBD1B6D1CC3E7A0F5005052461F385D
:1005400003A90390684600F0C2FD8DE8070000048F
:10055000000C03D04FF0FF30410800E01046B8F126
:10056000000F03D00022009215461FE0751E06D42E
:1005700000F094F902F1300262556D1EF8D5B346D1
:100580000122084302D000227F1C04E0207830289A
:1005900001D100227F1E002A07978DD01DE0112D6A
:1005A00007DA00F07BF9303262556D1C50EA010227
:1005B000F5D108430FD10021681E05E0235C625C81
:1005C0006354491C2254401E8142F7DBAB46A81BF2
:1005D000401E079001E0009848B1002004F80B008D
:1005E0000998079AC0F80880C0E9002B9EE71126F9
:1005F0004FF0000860E72DE9F04F88460446D21D11
:1006000022F0070191B0D1E90001CDE90C0102F01F
:1006100099FF02460D98C10F4FF02D0006D12168B9
:100620002B208B0702D4202000EAC100032A834636
:1006300001D0072A05DB03464146204600F08CF92D
:100640000AE12068800601D5E76900E0062711204D
:10065000B8F1650F06D0B8F1660F11D0B8F1670F89
:1006600067D128E00023112F009300DA781C03469D
:100670000CAA01A909A8FFF7ECFE00267D1C3FE0AB
:1006800001234FF000490CAA01A909A800933B4699
:10069000FFF7DFFEDDE90A50002620B9099907F1CE
:1006A000010001EB0005781B02D47D1CC0F1FF3670
:1006B000A5EB070A3DE0012F00DA01270023112FE7
:1006C000009300DC384603460CAA01A909A8FFF7ED
:1006D000C0FE20683D46002600070BD40A98A842B9
:1006E00000DA054601A8012D04DD411911F8011CAD
:1006F000302909D00998B84202DA10F1040F05DA5E
:100700004FF0010A099813E06D1EECE7002802DCA7
:100710002D1A064405E0401CA84202DD099D05F1A2
:1007200001050998A0EB060000F1010A4FF0004016
:1007300081462068000703D4AA4501DB4FF0FF3A49
:100740000020B9F1004F0DF13F078DF83F0024D094
:100750004FF002082B20B9F1000F00900BDA2D208A
:10076000C9F10009009006E0484600F0ADF93031CB
:10077000814607F8011DB8F10001A8F10108F3DC7A
:10078000B9F1000FF0D1009807F8010D216845205C
:10079000090500D4652007F8010D0EA8A0EB07009D
:1007A00000F107085FEA0B0000D0012000EB050113
:1007B00001EBEA7101EB0800A169A1EB0000A0F1D7
:1007C0000100A0612068C00602D42046FFF77AFD30
:1007D0005FEA0B0006D0D4E901219047206A00F1BE
:1007E000010020622068C00621D52046FFF76AFD7F
:1007F0001DE0002E05DB0A98B04202DD01A8805DF5
:1008000000E03020D4E901219047206A761C401C8A
:10081000BAF1010A20620AD100F034F8C068016818
:10082000405CD4E901219047206A401C2062281EC8
:10083000A5F10105DDDC07E0D4E9012117F8010B82
:100840009047206A401C2062B8F10001A8F101081D
:10085000F2DC2046FFF74CFD022011B067E60000F5
:10086000074B70B50C467B4400F063F80546204604
:1008700000F026F910B14FF0FF3070BD284670BD72
:100880001B2D000001487047704700BF8C160020E8
:1008900001487047704700BF6C16002030B5B0F1BA
:1008A0000A024FEA900E71F100034EEA817EB0EB2E
:1008B0000E0061EB91014FEA101E4EEA017E10EB33
:1008C0000E0041EB11114FEA102E4EEA016E10EBB3
:1008D0000E0041EB11214FEA104E4EEA014E10EB93
:1008E0000E0041EB1141401841F100014FEAD000E8
:1008F00040EA41704FEAD10110EB80054FEA8104D4
:1009000044EA907444EB01046D1944EB0404521B57
:10091000A3414FF0000348BF0A3200D530BD401C50
:1009200041F1000130BD000001694A1C02610878F4
:10093000704700B58FB0CDE901310021059105491F
:100940007944CDE9031011466846FFF7E3FC0FB088
:1009500000BD0000E5FFFFFF2DE9F04104461F4602
:1009600003260168072A01F4006003DB15A520B9FE
:1009700015A502E015A500B915A521F0100020600D
:10098000A069C01EA0610FB1401EA0612046FFF704
:1009900099FC4FB1D4E9012138469047206A401CA8
:1009A0002062C01C206206E0206AFAE7D4E9012137
:1009B00015F8010B9047761EF8D22046FFF798FCF9
:1009C000BDE8F0814E414E006E616E00494E46001A
:1009D000696E66002DE9F047814616468AB03748B1
:1009E0007844D0E9002380680092CDE90130334893
:1009F00078440C38D0E9022300690392CDE9043031
:100A000041F69B334FF0370001EB0302194492FB90
:100A1000F0F591FBF0F2A5F1800500FB12141B3CF0
:100A200002D56442012000E00020DFF890A080465B
:100A30000027FA44AAF1CE0A0DE0E00709D03246B9
:100A4000684607EB47010AEB810100F040FB8DE8A7
:100A5000070064107F1C002CEFD1184F7F44BC3F6F
:100A600017E0E80713D007EB04100DF1180A90E81F
:100A70000E00AAE80E00C068F04201D19819089053
:100A8000324606A903A800F022FB03AB07C36D1092
:100A9000641C002DE5D132466946B8F1000F03A869
:100AA00002D000F000FB01E000F011FBC9E90001F9
:100AB000C9F808200AB0BDE8F0870000943A0000A9
:100AC000C06800F0800070474FF00A01B0FBF1F2FF
:100AD00002FB110110467047004870476C16002059
:100AE0007546FFF7F9FFAE4605006946534620F00C
:100AF0000700854618B020B5FFF76AFBBDE8204027
:100B00004FF000064FF000074FF000084FF0000BC9
:100B100021F00701AC46ACE8C009ACE8C009ACE87C
:100B2000C009ACE8C0098D4670470446AFF30080A9
:100B30002046FFF747FB00004FF0013C50F8042B24
:100B400051F8043B9A4221D1A2EB0C03934313EAE0
:100B5000CC1317D150F8042B51F8043B9A4215D10D
:100B6000A2EB0C03934313EACC130BD150F8042BE4
:100B700051F8043B9A4209D1A2EB0C03934313EAC8
:100B8000CC13DBD04FF00000704700BFD01A01BA81
:100B9000B1FA81F101F0180122FA01F0CB40C1F164
:100BA0002001DBB2C0B2C01A2CFA01F3D11A914372
:100BB00011EAC311E6D1704701487047704700BF82
:100BC000701600205FEA400C08BF91F0000F4FEA5A
:100BD0008C234FEAC12243EA51514FEA1C5018BFFF
:100BE00000F5F0404FEA300018BF41F000415FEAE5
:100BF0006C5C00F02980BCF1FF3F08BF40F08040F2
:100C00007047130C06BF12044FF0100C4FF0000C8D
:100C1000130E04BF12020CF1080C130F04BF1201D3
:100C20000CF1040C930F04BF92000CF1020CD30FD3
:100C300004BF52000CF1010C11464FF00002A0F16C
:100C40001F00A0EB0C00704711F0004F08BF704769
:100C500031F000413FF4D5AF0B0C06BF09044FF053
:100C6000100C4FF0000C0B0E04BF09020CF1080C25
:100C70000B0F04BF09010CF1040C8B0F04BF89009A
:100C80000CF1020CCB0F04BF49000CF1010CCCF1AC
:100C90002003A0EB0C0022FA03F302FA0CF241EA63
:100CA000030100F10100704720F07F4C80EA03004F
:100CB00023F07F47ACEB070303F57C5300F00040C3
:100CC00003F1FF032DE980494FEA154B09B44FEAC0
:100CD000144325EA0B4E24EA03480FF2042606EBE0
:100CE000132749083E785FEA320203FB0667C7F51F
:100CF000000707FB06F64FEA54374FEAD64606F1DF
:100D0000020607FB066CCCF1005C4FEA1C472CEA9C
:100D1000074C07FB06F40CFB06F504EB15464FEAFF
:100D2000961634BF00204FF000404FEAD13706FB43
:100D300007FC4FEA1C4C0CFB0BF7D21B03FB0CF718
:100D400061EB07010CFB0EF7B0EB074072EB1742AB
:100D50000CFB08F734BFA2EB0742B2EB074261EB92
:100D600017414FEA0C444FEA910706FB07FC4FEA94
:100D70001C4C0CFB0BF7B0EBC74072EB573203FB7C
:100D80000CF734BFA2EBC742B2EBC74261EB57315D
:100D90000CFB0EF7B0EBC70072EB57720CFB08F7B9
:100DA00034BFA2EBC702B2EBC70261EB5771039FDE
:100DB0004FEA816141EA921104EBCC044FEAD1374A
:100DC0004FEA826206FB07FC42EA90124FEA80601B
:100DD0004FEA1C4C0CFB0BF7D21B03FB0CF761EB2F
:100DE00007010CFB0EF7B0EB074072EB17420CFB50
:100DF00008F734BFA2EB0742B2EB074261EB1741A1
:100E00004FEA8C554FEA910704EB9C2406FB07FC44
:100E10004FEA1C4C0CFB0BF7B0EBC74072EB5732A0
:100E200003FB0CF734BFA2EBC742B2EBC74261EB46
:100E300057310CFB0EF7B0EBC70072EB57720CFB8F
:100E400008F734BFA2EBC702B2EBC70261EB5771E0
:100E500015EB4C254FEA816141EA92114FEA82621B
:100E60004FEAD13742EA901206FB07FC44F1000436
:100E70004FEA80604FEA1C4C0CFB0BF7D21B03FBC4
:100E80000CF761EB07010CFB0EF7B0EB074072EBC0
:100E900017420CFB08F734BFA2EB0742B2EB074244
:100EA00061EB174115EB1C154FEA813141EA924184
:100EB0004FEA823242EA90424FEA80304FEA0C76A3
:100EC00044F1000448EA03434EEA0B484FF0000E99
:100ED000B2EB080C71EB030724BF624639464EEBB8
:100EE0000E0E4FF0000B0018524149414BEB0B0B1B
:100EF000B2EB080C71EB03077BF1000B24BF6246D9
:100F000039464EEB0E0E4FF0000B0018524149418E
:100F10004BEB0B0BB2EB080C71EB03077BF1000BF7
:100F200024BF624639464EEB0E0E51EA020718BF47
:100F300046F0010616EB0E7655F1000254F1000161
:100F400003D5BDE88901BDE80088BDE88901BDE899
:100F50000048B619524141EB0101A3F1010370476A
:100F600080807F7E7D7C7B7A7978777676757473E6
:100F7000727171706F6E6E6D6C6C6B6A6A696868A5
:100F8000676666656464636362616160605F5F5E3B
:100F90005E5D5D5C5C5B5B5A5A59595858575756B1
:100FA0005655555554545353525252515150505016
:100FB0004F4F4F4E4E4D4D4D4C4C4C4B4B4B4A4A68
:100FC0004A494949484848474747474646464545AC
:100FD00045444444444343434342424242414141E5
:100FE000002B26D4770021D01CB54FEA370703B475
:100FF0004FF010004FF010014FF000000FBCBDE8A3
:1010000010400BF1010BBBF1010F08BF5FEA17079E
:1010100022BF12F1010211F101014FF0004143F131
:10102000000300F0004043EA00007047F9D357087E
:10103000DAE746EA064613F1400F4FEA16461FDD8F
:1010400013F1200FDFBF16430A46002120335B4215
:10105000C8D0C3F1200746EA064602FA07F74FEA6E
:10106000164646EA0706C3F1200722FA03F201FA00
:1010700007F721FA03F14FF0000342EA0702B1E754
:1010800046EA020646EA06464FEA164646EA0106E0
:10109000BCBF46EA0646360C4FF000034FF0000294
:1010A0004FF000019EE72DE9C048934630B491E827
:1010B000380007C831EA400C48BF34EA430C03D576
:1010C000FFF7F2FDFFF78CFFF0BCBDE800882DE9CB
:1010D000C048934630B491E8380007C810F0804FFC
:1010E00008BF13F0804F03D100F005F8FFF778FF39
:1010F000F0BCBDE8008820F07F4780EA030023F0C1
:101100007F4C07EB0C03A3F57C5300F00040A3F1E8
:10111000FE0392F0000F00F0B38095F0000F00F096
:1011200077802DE901494FEA11404FEA144621EA40
:10113000004800FB06FC24EA064708FB06F607FB0E
:1011400008F800FB07F718EB06484CEB164C4FEA83
:10115000124B18EB07484FEA15464CEB174022EAB2
:101160000B4E0BFB06FC25EA06470EFB06F607FBBB
:101170000EFE0BFB07F71EEB064E4CEB164C4FF02A
:1011800000061EEB074E4CEB174B18EB0B0840F11B
:10119000000018EB0E0B58EB000840F100008F1A0E
:1011A0004FF000013CBFC943661B14BFB5EB040CF4
:1011B00000213CBFC943F61B4FEA17444EEA8E0E8E
:1011C00027EA04454FEA1C4704FB07622CEA074C58
:1011D00005FB07F70CFB05F604FB0CFC16EB0746BA
:1011E00042EB174216EB0C4642EB1C421BEB060689
:1011F00058EB0202414146EA9E0601D5BDE801894D
:10120000B619524141EB0101A3F10103BDE8018987
:101210004FEA14454FEA114724EA054621EA074CF4
:1012200005FB07F406FB07F70CFB06F105FB0CFCBE
:1012300011EB074144EB17444FEA124711EB0C4105
:1012400044EB1C4422EA074C05FB07F206FB07F7B8
:101250000CFB06F605FB0CFC16EB074642EB1742AF
:1012600016EB0C4642EB1C456A1854F1000148BFCE
:101270007047B619524141EB0101A3F101037047D8
:1012800095F0000F37D04FEA11424FEA144721EA98
:10129000024624EA074C02FB07F106FB07F70CFBAA
:1012A00006F402FB0CFC14EB074441EB17414FEA38
:1012B000154714EB0C4441EB1C4125EA074C02FB9B
:1012C00007F506FB07F70CFB06F602FB0CFC16EB1A
:1012D000074645EB174516EB0C4645EB1C42121929
:1012E00051F1000148BF7047B619524141EB01016D
:1012F000A3F1010370474FEA14454FEA114724EA6E
:10130000054621EA074C05FB07F106FB07F70CFB36
:1013100006F24FF0000605FB0CFC12EB074241EB16
:10132000174112EB0C4251EB1C4148BF7047921819
:1013300041EB0101A3F101037047704710B592B072
:10134000002011906EA1096810916EA109680F919B
:101350006DA109680E916DA109680D916CA10968D4
:101360000C916CA109680B916BA109680A91099015
:1013700008906AA109680791069069A003C8CDE9A1
:10138000040169A003C8CDE9020169A000680190C9
:1013900001AA01214EF2FE7002F0AAF80DF1050239
:1013A00001214EF2E37002F0A3F809AA02214EF2E5
:1013B0000F6002F09DF808AA02214EF2186002F0B8
:1013C00097F811AA01214EF2017002F091F807AAD4
:1013D00002214EF20E6002F08BF80FAA01214FF4A9
:1013E000674002F085F810AA01214EF2027002F067
:1013F0007FF80DAA02214EF20C6002F079F80DAAD6
:1014000001214EF2037002F073F804AA04214EF297
:101410000A5002F06DF805AA04214EF20B5002F0BA
:1014200067F802AA042144F2AC3002F061F802AC81
:10143000221D042144F2AB3002F05AF802AA042122
:1014400044F2AA3002F054F8221D042144F2A930DB
:1014500002F04EF802AA042144F2AE3002F048F83D
:10146000221D042144F2AD3002F042F80AAA042100
:1014700044F2B13002F03CF80AAA042144F2B03040
:1014800002F036F80AAA042144F2B23002F030F831
:101490000CAA02214EF2106002F02AF80BAA0221D7
:1014A0004EF2116002F024F80BAA02214EF21260F3
:1014B00002F01EF80BAA02214EF2136002F018F897
:1014C0000DF1390201214EF2057002F011F844F2DB
:1014D000B63406AA0421204602F00AF806AA04211E
:1014E000204602F005F806AA0421204602F000F882
:1014F0000EAA02214EF2282001F0FAFF12B010BD10
:101500002100000012000000000100007530000002
:1015100008C80000000A000000022060000400006B
:10152000000000200000000000CE237B000000042B
:10153000AD0000000EB50EA0006802900DA000687E
:1015400001900DA00068009002AA042144F28430AA
:1015500001F0CEFF01AA042144F2853001F0C8FF5A
:101560006A46042144F2953001F0C2FF0EBD00002E
:101570000003A7320005B52DFFFF29B208B50121F0
:10158000202001F06FF94FF46040ADF80000032017
:101590008DF8020010208DF803006946014800F024
:1015A00015FA08BD0014014070B5104D4FF40054F9
:1015B0002146284600F05DFA142001F0D8FF2146AC
:1015C000284600F058FA052001F0D1FFA100284676
:1015D00000F051FA052001F0CAFF6100284600F032
:1015E00048FABDE87040052001F0C1BF0014014079
:1015F00038B51DA0006800901C4D4FF48054214662
:10160000284600F038FA052001F0B1FF21462846AF
:1016100000F02FFA052001F0AAFF2146284600F02D
:101620002AFA052001F0A3FF2146284600F021FAFE
:10163000052001F09CFF2146284600F01CFA0520F9
:1016400001F095FF2146284600F013FA052001F02D
:101650008EFF2146284600F00EFA6A4601214EF61A
:10166000014001F045FF38BD02000000000C0140C0
:1016700010B501F08BF9FFF781FFFFF795FF00220E
:1016800028231146104600F081FDFFF7B1FFFFF758
:1016900051FFBDE81040FFF751BE704710B586B04E
:1016A000012000F01DFB164C2064012000F018FB07
:1016B000A064002000F062FA606400224FF480749D
:1016C000CDE9024203230F4804930190042300F55F
:1016D0007F7200210C48009300F022FC0022CDE92B
:1016E00002420323094804930190052300F57F7209
:1016F00000210748009300F013FC06B010BD000065
:1017000000000020C0020020592F0008C006002061
:101710004D3200087047704700F0D0FD00F0A0FB8C
:1017200008A0FEF7C3FD002301221946184600F069
:101730002DFDFFF7B3FF002301221946184600F0E4
:1017400025FDF8E7B3F5CABCBBAFCDEAB3C90000CD
:10175000704770473EB5002002901FA000680190BE
:1017600001F08CF801F010FEFFF782FF0022052344
:101770001146104600F00AFD02AA01214EF6014072
:1017800001F0D6F801AA01214FF4674001F0D0F82A
:101790006A4602214EF20F6001F0CAF84EF203547D
:1017A0000E4A0421204601F0C3F80D4A0421E01D31
:1017B00001F0BEF80B4A0421204601F0B9F80022DE
:1017C0004FF4FA731146104600F0E0FC00F062F8A6
:1017D00001F008FB3EBD0000040000005C0000209A
:1017E0006800002060000020704770477047704715
:1017F00070477047704770477047704770B54FF437
:101800008054204600F07AF800282FD0FEF7EEFC36
:10181000054617490878401C08702846FEF7EAFC80
:10182000204600F031F84EF20254124A04212046BC
:1018300001F07EF80F4A0421204601F059FE0D4ABE
:101840000421204601F074F80A4A0421121D4EF2C8
:10185000024001F06DF808480649091D006800F0D3
:1018600017FA2846BDE87040FEF7C4BC70BD000002
:101870008600002060000020440000207047704770
:1018800070477047704700000149086070470000CA
:10189000140401407FB50121212000F0E3FF4FF443
:1018A000A06000F01DF928208DF8000001248DF8BB
:1018B00001408DF802408DF80340684600F0E1F8E1
:1018C0002503ADF80C5048208DF80F0003A90A48F5
:1018D00000F07CF80C21032000F064F80195002052
:1018E0008DF808000C208DF809008DF80A4001A839
:1018F00000F014F87FBD00000014014001460020F4
:10190000054B1A6802EA01025B690B4202D0002A09
:1019100000D00120704700000004014030B51F4A8C
:101920008179036899B311460C6824EA03040C60BA
:101930004B68046823EA04034B60047904EB020358
:101940001C68056844EA05041C608B68046823EA87
:1019500004038B60CB68046823EA0403CB60A1F521
:1019600080614379102B05D099180A6800680243FA
:101970000A6030BD01F581610A68036842EA03022A
:101980000A604A68006842EA00024A6030BDFFE728
:1019900000791044016899430160F7E700040140B1
:1019A0007047000010B58A07120F0F23934021F0F3
:1019B0000304054921448C689C438C608B689040EB
:1019C00003438B6010BD0000000001402DE9F04191
:1019D0000022CC7804F00F03E40601D58C78234371
:1019E0000C884FF00F0714F0FF0F4FF0010C1CD0C4
:1019F00005680CFA02F40E882640A64211D1960022
:101A000007FA06F825EA080503FA06F848EA050584
:101A1000CE78282E02D0482E02D002E0446100E0A9
:101A20000461521C082AE4D305600A88FF2A1ED9E3
:101A30004568002202F108060CFA06F40E882640DA
:101A4000A64210D1960007FA06F825EA080503FA1F
:101A500006F848EA0505CE78282E00D14461CE78F4
:101A6000482E00D10461521C082AE3D34560BDE82A
:101A7000F08141617047016170477047704770475E
:101A80007047F0B50F24C27801784FF0E0230127AA
:101A9000E2B1D3F80C2D02F4E062C2F5E062120A62
:101AA000C2F10405D4404678AE40827822403243E9
:101AB0001201194481F80024007800F01F018F40C2
:101AC000400903EB8000C0F80071F0BD01F01F0079
:101AD0008740480903EB8000C0F88071F0BD00002A
:101AE0000249084302490860704700000000FA05F7
:101AF0000CED00E010B500F012F800F0D5FC00F09D
:101B0000E3FC00F0F5FC00F0ADFC00F089FC00F017
:101B100019FD00F03FFDBDE8104000F001B870472E
:101B20007047000070B5134CE079012821D1FEF711
:101B30005DFB0546A17809B1491EA170A07898B94E
:101B4000E07888B900F07CFD6179207981420BD082
:101B5000094850F82110E162486B401C4863E06876
:101B6000401CE060FEF75EFB2846BDE87040FEF7D3
:101B700041BB70BD840000204011002070B50546B7
:101B80000D48007808B1002070BDFEF72FFB0B490F
:101B90000C680CB162680A60FEF72CFB54B101209E
:101BA00020700020208165603F21E1732074204671
:101BB00000F02AFC204670BD860000209400002022
:101BC0002DE9F0470546894614462878012804D0B7
:101BD000012020700020BDE8F0872A48007818B165
:101BE000022020700020F6E72748007818B10D2069
:101BF00020700020EFE7FEF7F9FA07466E684FF015
:101C0000000846B1C5F804803846FEF7F3FA84F8B8
:101C100000803046DFE71D4E326812F82C0F40F08E
:101C20000200107082F8018022F8029C284600F021
:101C3000C7FB3846FEF7DEFA00F0DEFCFEF7D6FA08
:101C40000746316891F82D6076B1284600F056FBC2
:101C50003846FEF7CFFA022E02D00A20207001E0AB
:101C60000E2020700020B6E70D6AC1F8208081F8B0
:101C70002C80C1F81C803846FEF7BCFA84F800803E
:101C80002846A8E78600002087000020A800002042
:101C900070B504460E462078012801D0012070BDA1
:101CA000FEF7A4FA0546A07A60B10023022231466D
:101CB000204600F03FFB2846FEF79CFA00F09CFC13
:101CC000002070BD606820B12846FEF793FA14200A
:101CD00070BD66602846FEF78DFA002070BD0000DA
:101CE00070B505460D48007808B1002070BDFEF7BC
:101CF0007DFA0B490C680CB162680A60FEF77AFA4B
:101D000054B1032020702581002060603F21E173E1
:101D10002074204600F078FB204670BD860000202D
:101D2000940000202DE9F04705468946144628789E
:101D3000032803D001202070BDE8F08724480078F4
:101D400010B102202070F7E72248007810B10D2072
:101D50002070F1E7FEF74AFA06462889002730B1DD
:101D6000401E28813046FEF745FA2770E4E7DFF889
:101D70006880D8F8002012F82C0F40F00100107095
:101D8000577022F8029C284600F01AFB3046FEF7F6
:101D900031FA00F031FCFEF729FA8146D8F800004C
:101DA00090F82D606EB1284600F0A8FA4846FEF77C
:101DB00021FA022E02D00A202070BDE70E202070EA
:101DC000BAE7C7614846FEF715FA2770B4E7000086
:101DD0008600002087000020A800002070B504467F
:101DE0002078032801D0012070BDFEF7FFF90546D9
:101DF000A07A60B1002301221946204600F09AFA29
:101E00002846FEF7F7F900F0F7FB002070BD2089A7
:101E10004FF6FF71884206D2401C20812846FEF70B
:101E2000E9F9002070BD2846FEF7E4F9322070BDC4
:101E300010B5094CE07900280CD100F001FC607964
:101E40002071064951F82000E0626062BDE8104050
:101E5000FEF7D3B910BD000084000020401100201F
:101E600010B5022000F066F9FEF7C0F9084C002119
:101E70002162FEF7BFF90A2000F05CF9FEF7B6F91F
:101E8000216A616101216170BDE81040FEF7B2B9BD
:101E900084000020FFF701BC2DE9FE4305460F46F4
:101EA00090461C46FEF7A2F91A49097821B1FEF7BF
:101EB000A1F93C20BDE8FE83174E56F8241019B155
:101EC000FEF798F92820F5E7012146F82410FEF7DF
:101ED00091F9002342463946284600F0F7F80023DE
:101EE0000146009301931A462046029300F0D0FB6E
:101EF000054645B1FEF77AF9002146F82410FEF7B1
:101F000079F92846D6E7054800780128F9D100F08C
:101F100073FBF6E786000020401100208B000020B4
:101F20002DE9FF4F83B08046DDE910B68946924621
:101F30001C46149FFEF75AF91E49097829B1FEF78D
:101F400059F93C2007B0BDE8F08F1B4D55F824101F
:101F500019B1FEF74FF92820F4E7012145F82410C4
:101F6000FEF748F93A463046129900F063FC3B46CA
:101F700052464946404600F0A9F8DDE912128DE8C4
:101F8000860001465B463246204600F081FB06464D
:101F900046B1FEF72BF9002145F82410FEF72AF987
:101FA0003046CFE7054800780128F9D100F024FB3E
:101FB000F6E7000086000020401100208B00002082
:101FC000FFF7A8BBFFF7A7BB2DE9F04105460F4679
:101FD00014461D48007818B112202070BDE8F08129
:101FE000FEF704F90646FF2D03D11848006890F863
:101FF0002E50174850F825504FF0430865B1012D79
:1020000010D0384600F03AFB0F2811D93046FEF7C1
:10201000F1F841202070E1E73046FEF7EBF884F854
:102020000080DBE73046FEF7E5F884F80080D5E76E
:10203000394605F1480000F013FB3046FEF7DAF8A8
:1020400000202070CAE7000086000020A8000020C1
:1020500040110020FFF77CBB2DE9F04104460E46FD
:10206000002030607060FEF7C1F8FF2C03D11549E5
:10207000096891F82E40144951F8242052B1012AE0
:102080000DD0118AC9070ED00024D7689568FEF7D5
:10209000B1F80DE0FEF7AEF84320BDE8F081FEF7A1
:1020A000A9F84320F9E7FEF7A5F84520F5E7641CF9
:1020B00001CD0028FBD0A0003060381B800070608C
:1020C0000020EAE7A8000020401100204FF08073B4
:1020D000136042F8040C083A6FF001001060A2F19E
:1020E00030004FF01233C3624FF0033282624FF080
:1020F000023242624FF001320262C1614FF011318F
:1021000081614FF0103141614FF0093101614FF0B1
:102110000831C1604FF0073181604FF006314160F6
:102120004FF0053140F804194FF004310160704759
:10213000FFF70FBB70B504461048007800281BD18C
:10214000002C19D0FEF752F80D49096891F830209B
:102150000C4D91F83160AB5CB343AB542BB90A4AD8
:1021600091F832501378AB4313704C85FEF742F868
:10217000BDE8704000F040BA70BD0000860000204D
:10218000A8000020A00000208A00002070B5164C96
:1021900024780CB1552070BD5B1D642463434FF45B
:1021A0007A74B3FBF4F34FF461646043C1EB011143
:1021B00000EB8100104400EBC00101EB001003EBC9
:1021C0008000040C80B2FFF7B5FF4FF4004507E034
:1021D0002846FFF7AFFF2846FFF7ACFF641EA4B206
:1021E000002CF5D1002070BD8600002010B50446FB
:1021F000FDF7FCFF02490C60BDE81040FDF7FABF97
:10220000B80000202DE9F04100F056F8FDF7EEFF90
:10221000284D696B491C6963FDF7ECFFE8790128DB
:1022200045D1687A0126002748B1012809D0022843
:1022300009D001206F72002839D02C6B33E00120C7
:10224000F9E70020F7E701206E72F4E7FDF7CEFF13
:10225000618D29B3491E0904090C618520D194F8C8
:102260002C1011F0370F06D021F0370184F82C1014
:1022700084F82D6001E084F82D7094F82C10090783
:102280000ED494F83210AA791143A971094A94F82E
:1022900030101C3294F831C0535C43EA0C035354A1
:1022A0006469FDF7A7FF94F82E001F28CED1BDE882
:1022B000F0810000840000207047000000B585B068
:1022C000684600F0DDFA01986421B0FBF1F0B0F14E
:1022D000807F0ED220F07F414FF0E020491E416107
:1022E000054AF02111704FF0000181614FF00701A4
:1022F000016105B000BD000023ED00E010B50C4CFD
:10230000626A12F8301F43185278D97A9143D97211
:1023100029B9626A817A92F8322091438172606AA7
:10232000002100F11C0041740174016010BD000027
:10233000840000202DE9F041847A1E4F3C5D012588
:1023400005FA04F6F6B200EB040898F80BC017F88B
:102350000C70BD40EDB207EBC407FFB22CEA050CD0
:1023600088F80BC0BCF1000F05D190F80AC02CEA28
:10237000060C80F80AC0104850F827004FF0000CF7
:1023800000F11C00A0F80EC0C0F800C0416043740A
:10239000017C21EA0201017441B90849887930437E
:1023A000887101F11C00015D294301553846BDE8E3
:1023B000F0810000FA420008401100208400002053
:1023C00070B5104C616AC86191F8302004F11C05A9
:1023D00091F83160AB5CB343AB5423B991F8323020
:1023E000A2799A43A27111F8303F00F10B024978AB
:1023F0009D5C0D439D54626A817A92F832201143AC
:10240000817270BD84000020002282720B30002196
:1024100000F8012B491CC9B20429F9D37047000008
:1024200010B58C210D4800F0DDF80C4800F11C02BD
:10243000002100233F24037042608472C3721C3069
:102440001C32491C89B20429F5D30370436084729D
:10245000C37203490148086010BD0000E015002068
:10246000BC00002010B54FF4A0710D4800F0BAF880
:102470000B4800F12002002100233F24037042603A
:10248000C473037420302032491C89B20929F5D362
:1024900003704360C473037402490148086110BDAE
:1024A000000C002084000020064800214163817058
:1024B000C1700172C171C16001628161416141708D
:1024C0007047000084000020084B00229A7103F13D
:1024D0001C01002001F8012B401CC0B20428F9D3D4
:1024E0001A715A71DA625A62704700008400002043
:1024F00010B54FF48461114800F074F80F48802142
:10250000803800F06FF80D4800F1580200210024D7
:102510003F23426180F8483080F8494058305832B3
:10252000491CC9B20B29F4D3446180F8483080F8C3
:102530004940034804630149816210BDC011002075
:102540008400002000B587B003230022CDE90323D7
:102550000A488021CDE901014FF6FF73009300F591
:10256000FE721F2300210648FFF7DAFC06AA05A128
:102570001F20FFF729FD07B000BD0000400F00201D
:102580008127000875432F4F532D49492049646C1A
:102590006500000000B587B003230022CDE90323C6
:1025A0000A488021CDE901014FF6FE73009300F542
:1025B000FE721E2300210648FFF7B2FC06AA05A101
:1025C0001E20FFF701FD07B000BD0000400D0020F8
:1025D0009D27000875432F4F532D4949205374619F
:1025E00074000000002203E000F8012B491E89B2AC
:1025F0000029F9D17047000070B5FDF7F7FD0546D9
:102600000D4CA07898B9E07888B900F019F8617994
:10261000207981420BD0094850F82110E162486BC3
:10262000401C4863E068401CE060FDF7F6FD28466A
:10263000BDE87040FDF7DEBD8400002040110020A1
:102640000649054A8879105C01F11C031B5CD25CC9
:1026500002EBC00048717047FA4200088400002075
:10266000002204E000F8013B491C521CD2B20B7856
:10267000002BF7D100210170104670470146002061
:1026800002E0491C401CC0B20A78002AF9D1704708
:102690002DE9FF5F0646DDE90EBA0D4690469946E4
:1026A000FDF7A4FD344FBC6AECB354F8141FB962B3
:1026B000FDF7A0FD44F8145CA67600252576657626
:1026C000E58244F810AC44F808BC44F80C8C10982F
:1026D00024F8040C24F8029CE577F0082077012206
:1026E00002FA00F1A17706F00700E07602FA00F1A5
:1026F0006177A5602561E5602562A5626562E56296
:1027000025633F2084F8340084F83550A4F1140484
:102710002046FFF7BFFB2046FFF752FCFDF766FDA2
:102720000146164800E022E040F82640386B606120
:10273000A56100B184613C6304F13004BA79A078EA
:1027400040EA0200B8710C4A207802F11C02647859
:10275000135C43EA04031354387A00F10100387221
:102760000846FDF747FD002004B0BDE8F09FFDF7E7
:1027700041FD4220F8E700008400002040110020C5
:10278000054CFDF733FD216A491C2162FDF732FD3E
:10279000FFF718FCF5E7000084000020164D02E06A
:1027A0001420FFF7C7FC68780028F9D068694FF05B
:1027B0006408B0FBF8F40026FDF718FD296AA9614A
:1027C0002F6A2E62FDF716FD54B1B7FBF4F0C0F18D
:1027D000640040B2002801DB287005E02E7003E0A1
:1027E0002E706869B0FBF8F4FFF734FC00F006F8CF
:1027F0000A20FFF79FFCDFE7840000207CB500245F
:102800000B4D69462046FFF727FC58B955F82410B0
:1028100041B1012906D0D1E9020200EB820008642F
:1028200001984864641CE4B21F2CEAD97CBD000006
:1028300040110020D30707D0920705D5002201E000
:10284000491E04C00029FBD170477047044A19B1E2
:10285000D1690143D1617047D1698143D16170472A
:1028600000100240044A19B1916901439161704717
:1028700091698143916170470010024000F092B964
:1028800010B5254A516801F00C01244B39B30429D5
:1028900027D0082927D00360516801F0F001090909
:1028A0001F4B5C5C0168E1404160546804F4E064E3
:1028B000240A1C5D21FA04F48460546804F4605412
:1028C000E40A1B5DD940C160526802F44042920B99
:1028D000134B1B1F9A5CB1FBF2F1016110BD036049
:1028E000DAE70360D8E7516801F47011536803F424
:1028F0008033022404EB914133B153689B0307D525
:10290000084B59430160C7E7064B59430160C3E7D1
:10291000024B59430160BFE70010024000127A00E9
:102920007400002000093D007047704770470000A8
:102930002DE9F0470E461546C4B2C0F30729DFF86B
:1029400044804FF4805739464046FFF792F8012003
:1029500000F07AF8484600F077F8204600F074F866
:10296000002406E0FF2000F06FF805F8010B641C5E
:10297000E4B2B442F6D339464046BDE8F047FFF72B
:102980007AB80000000C014070477047F0B587B07E
:1029900001210920FFF766FF01218D032846FFF77B
:1029A00055FF4FF42040ADF8040018248DF807407F
:1029B00003268DF80660224F01A93846FFF706F876
:1029C000ADF804508DF8074001A93846FEF7FEFF28
:1029D000A810ADF8040010208DF807008DF80660EF
:1029E00001A93846FEF7F2FF164D0021284600F0F7
:1029F00045F80021ADF808104FF48272ADF80A20B6
:102A0000ADF80C100220ADF80E000120ADF810005A
:102A10004002ADF81200ADF81440ADF816100720D2
:102A2000ADF8180002A9284600F03EF8012128461A
:102A300000F024F8FF2000F007F807B0F0BD000018
:102A4000000C01400038004070B50B4C05460221D7
:102A5000204600F01EF80028F9D02946204600F054
:102A600021F80121204600F014F80028F9D0204672
:102A700000F016F8C0B270BD0038004021B10188E6
:102A800041F0400101807047018821F04001018040
:102A900070470246002012890A4200D00120704788
:102AA000808970478181704730B5028802F44153B4
:102AB0000A884C88CD8822438C882C4322430C8979
:102AC00022434C8922438C892243CC8922431A43D6
:102AD0000280828B22F400628283098A018230BDE7
:102AE000AFF30080002024490A6842F480320A6073
:102AF0004FF4A0630A6802F40032401C0AB99842FD
:102B0000F8D10868800301D5012000E000200128E9
:102B100030D11A48026842F010020260026822F0C6
:102B200003020260026842F00202026048684860E4
:102B300048684860486840F480604860486820F40D
:102B40007C104860486840F4E8104860086840F02D
:102B50008070086008688001FCD5486820F0030098
:102B60004860486840F0020048604868C0F381004F
:102B70000228FAD1704700000010024000200240F5
:102B800010B5FDF733FB064A1178491C1170FDF7AB
:102B900031FBFFF737FBBDE81040FEF7C3BF000075
:102BA000860000200C48016841F001010160416885
:102BB0000A4A114041600168094A114001600168F8
:102BC00021F480210160416821F4FE0141604FF44D
:102BD0001F018160FFF784BF001002400000FFF872
:102BE000FFFFF6FE704770477047704770477047A9
:102BF0002DE9F04F85B0DFF880B10121584600F093
:102C000047F9F0B3DFF87481B8F80200401C80B2D5
:102C1000A8F802004FF0000AB0F57A7F38D1A8F882
:102C200002A057485749584E0068DFF86091884223
:102C300016DA01F03DFA04460D46306801F038FA24
:102C400006460F46D9F8000001F032FA02460B465C
:102C50004FA0CDE90067CDE90245FDF727FB17E05E
:102C600001F026FA04460D46306801F021FA0646C6
:102C70000F46D9F8000001F01BFA02460B464DA0A2
:102C800000E071E0CDE90067CDE90245FDF70EFBFC
:102C9000514804AA00210068FFF744F898F80000A2
:102CA0001424B0FBF4F104FB11004C4901EB800249
:102CB000042144F2C430FFF73BFE98F80000B0FB5B
:102CC000F4F104FB11004549503101EB800204216D
:102CD00044F2C530FFF72CFE284A0421121D4EF2A3
:102CE0001550FFF725FE254A042110324EF20350FD
:102CF000FFF71EFE214A042108324EF20E50FFF764
:102D000017FE1E4A04210C324EF21250FFF710FE3D
:102D100098F80000B0FBF4F104FB11002F49A0313A
:102D200001EB800204214EF20150FFF701FE98F8FA
:102D30000000B0FBF4F104FB11002849F03101EB75
:102D4000800204214FF46540FFF7F2FD98F800007F
:102D5000401CC0B288F80000142805D188F800A0F3
:102D60001F480068FFF73AF80121584600F082F842
:102D700005B0BDE8F08F0000000400404C000020CA
:102D80002C00002000007A441800002020000020C1
:102D900053234530342325362E32662325362E32F2
:102DA000662325362E3266233030303030302345CE
:102DB0000000000053234530342325362E3266238D
:102DC00025362E32662325362E31662330303030BC
:102DD000303023450000000048000020C00A0020D9
:102DE000400000201FB54FF4A060FEF779FE1D20C3
:102DF0008DF8000001208DF8010002218DF80210ED
:102E00008DF803006846FEF73CFE01210220FFF723
:102E10001DFD4F20ADF8080040F28330ADF80400EE
:102E20000020ADF80A00ADF806000B4C01A92046C1
:102E300000F044F80121204600F01CF80122114660
:102E4000204600F031F80121204600F008F8012169
:102E5000204600F012F81FBD00040040704721B169
:102E6000018841F0800101807047018821F08001D4
:102E700001807047C9430182704721B1018841F048
:102E8000010101807047018821F001010180704734
:102E900002460020138A0B4092890A40002B02D080
:102EA000002A00D0012070471AB182890A4382812A
:102EB000704782898A4382817047000030B502885A
:102EC0001B4C1C4DA0420DD0A8420BD0B0F1804F3E
:102ED00008D0194B984205D0184B984202D0184B95
:102EE000984203D122F070034A881A43154B984246
:102EF00006D0154B984203D022F44073CA881A4377
:102F000002808A8882850A880285A0420AD0A84267
:102F100008D00E4A904205D00D4A904202D00D4A88
:102F2000904201D1097A01860121818230BD0000E1
:102F3000002C014000340140000400400008004023
:102F4000000C004000100040001400400040014010
:102F5000004401400048014008B5A54EB06CFEF7A2
:102F60003DFFA4A0FDF7A2F9DFF894B26A46002164
:102F7000306CFEF7D7FEA348377800EB87008178E6
:102F800042780902C07801EB0241084400F0AFFD2D
:102F9000DFF874820022434600F03AFC04460D46F6
:102FA000306901F085F822462B4600F083FB00F0E3
:102FB0004FFB3061954800EB870081784278090229
:102FC000C07801EB0241084400F091FD0022434625
:102FD00000F01EFC04460D46706901F069F82246B7
:102FE0002B4600F067FB00F033FB70619BF801405B
:102FF000802C0ED39BF8021020044042494200EB83
:1030000001209BF80310081AA0F1807001F07CF8F1
:10301000B062802C0AD29BF802009BF803100002D9
:1030200000EB0440084401F087F8B0627849487822
:1030300080280ED38B784FEA0042C2F10002C3F120
:10304000000302EB0322CB78A3EB0202A2F1807211
:10305000B26007D28A78C9784FEA022202EB0040B8
:103060000844B0606B49487880280ED38B784FEACB
:103070000042C2F10002C3F1000302EB0322CB784D
:10308000A3EB0202A2F18072F26007D28A78C978BB
:103090004FEA022202EB00400844F06054483C3002
:1030A000817842780902C07801EB024108447060DF
:1030B0007F1CF8B2307014287FF458AF4FF080476F
:1030C0000020394600F088FA04460D46306900F0C9
:1030D000EFFFDFF844810022434600F099FB4FF0F8
:1030E000FF3A524601F0C1F822462B4600F090FB11
:1030F00000224A4B00F08CFB0022494B00F00AFDF5
:1031000000F0A6FAB0614FF00009C6F81090B06A5E
:1031100000F0CEFF4FF03042424B00F079FB424AC4
:10312000424B00F0F7FC424A424B00F0F3FC042211
:1031300001F09BF800F08CFAF062C6F828900020AD
:10314000394600F049FA04460D46706900F0B0FFB8
:103150000022434600F05CFB524601F086F822460E
:103160002B4600F055FB344A344B00F0D3FC00F002
:103170006FFA3062C6F81490B06800F0A1FC304CD1
:103180000022234600F044FB524601F06EF82D4D1C
:1031900000222B4600F0BEFC00F05AFAF061F06805
:1031A00000F08EFC0022234600F032FB524601F074
:1031B0005CF80022244B00F0ADFC00F049FA70628C
:1031C000706800F094FC0022234600F021FB524678
:1031D00001F04BF800222B4600F09CFC00F038FA7E
:1031E000B06386F80090B06CFEF7F8FDBEE6000014
:1031F00000000020BFAACABCB6C1C8A1200D0A00A9
:1032000050000020C00A002000003440100B0020B5
:10321000540000205800002053FB4F410000614043
:1032200000408F40A6F67F41CDCCCCCCCCCC044026
:10323000FA7E6ABC744571401D5A643BDF6C88405D
:10324000509D56410000394000788B4088B0DFF82F
:10325000C4B0DFF8C4A007AA0021DAF84400FEF7E2
:10326000AFFCC178827801EB022142780078120429
:1032700002EB0060084400F047FFCAF8300000F09D
:1032800017FF264A264B00F045FC00F0E1F9CAF88A
:103290003400DAF82C605E451EDA00F009FF0446BF
:1032A0000D46304600F004FF06460F46DAF81800D7
:1032B00000F0FEFE80468946DAF8200000F0F8FEB5
:1032C0000246CDE900890B4616A0CDE90267CDE99B
:1032D0000445FCF7EBFFBEE700F0EAFE80468946B6
:1032E000304600F0E5FE04460D46DAF8180000F01E
:1032F000DFFE06460F46DAF8200000F0D9FE0B4646
:1033000002A90246A1E830030EA0CDE90067FCF750
:10331000CDFFA0E700007A4400000020FCA9F1D214
:103320004D62503F53234530342325362E326623D9
:1033300025362E32662325362E32662325362E324A
:103340006623450053234530342325362E32662329
:1033500025362E32662325362E31662325362E322B
:10336000662345007047704770478A05C94301804E
:10337000704721B1818941F4005181817047818971
:1033800021F400518181704710B586B001210520DC
:10339000FFF768FA01218803FFF764FA4FF4007021
:1033A000ADF8140003208DF8160018208DF81700D2
:1033B000164C05A92046FEF709FB2115ADF814109F
:1033C00004218DF8171005A92046FEF7FFFA4FF4E7
:1033D000E13001900020ADF80800ADF80A00ADF82A
:1033E0000C00ADF810000C20ADF80E00084C01A93F
:1033F000204600F017F801212046FFF7BAFF802190
:103400002046FFF7B2FF06B010BD000000080140E3
:10341000003801400246002012880A4200D00120F4
:103420007047000030B585B004460D46A889208A53
:103430004CF6FF710840E98801432182A0894EF6CD
:10344000F3110840A9882A8911436A89024311436C
:10345000A181A08A4FF6FF410840A9890143A182BA
:103460006846FFF70DFA1D48844201D1039800E039
:103470000298A189090408D500EBC00101EB0010F6
:1034800029684900B0FBF1F007E000EBC00101EB57
:10349000001029688900B0FBF1F06422B0FBF2F162
:1034A00009010B096FF018056B4300EB8300A3893A
:1034B0001D044FF0320307D503EBC000B0FBF2F060
:1034C00000F00700084306E003EB0010B0FBF2F049
:1034D00000F00F000843208105B030BD00380140E6
:1034E000C1F308018180704770477047704770478B
:1034F0002DE9F0470E461546C4B2C0F30729DFF8A0
:1035000040804FF4805739464046FEF7B2FA00201B
:10351000FFF79AFA4846FFF797FA2046FFF794FA22
:10352000002405E02878FFF78FFA6D1C641CE4B2D4
:10353000B442F7D339464046BDE8F047FEF79BBAA0
:10354000000C0140490050EAC12018BF04204A0D78
:1035500018BF40F0010040F2FF72B2EB515F08BFAC
:1035600040F00200012808BF052070477047002185
:1035700000EBC00202EB001000E0491CB1EB800F31
:10358000FBD3704770B50446064DE1B22846FFF7FD
:10359000A7FF40212846FFF73DFF0028F9D020462D
:1035A00070BD00000038014010B5FCF773FEFEF757
:1035B000A1FAFEF7CFF80223054A00210548FEF7DD
:1035C0006BFC0020FEF712FEFEF732FC002010BD5F
:1035D000BC020020191700082DE9F04106460F46ED
:1035E00000F096FB04000D4618BF0120284320F090
:1035F0000040C0F17F6010F1E0400ED5002E14BFF6
:1036000001200020384320F00040C0F17F6010F11D
:10361000E0405CBF0120FCF715FF20462946BDE8CD
:10362000F081000010B500290AD00878002807D0E2
:1036300005487844FDF780FA002801D0002010BD2D
:103640000248784410BD00007E0E0000760E000097
:1036500021F00042A2F16052B2F5801F01F0004358
:1036600028BFD2F17F6C0BD95FEA001C43EAC2028B
:1036700042EB507018BF704728BF20F00100704720
:10368000B2F5801FBCBF184670474FEA410C1CF5CD
:10369000001F02D2084600F0AFBD70B500F0E4FA9A
:1036A00000000089FFF7F6BF4FF00040A0F5800052
:1036B0007047000010B591EA030F48BF83F0004344
:1036C00000F11484841A71EB030E05D2121943EB36
:1036D0000E03001B61EB0E01DFF820C14FEA11540D
:1036E000A4EB135E1CEA430F18BF9CEA445F71D041
:1036F00023EA0C03DEF1200C21EA045143F4801389
:1037000032D322FA0EFC10EB0C0023FA0EFC41EB34
:103710000C01CEF1200C03FA0CFC10EB0C0051F163
:103720000001B1F5801FCEF1200C32D201EB045123
:10373000BDE8104012FA0CF258BF7047401C38BF69
:103740005FEA420218BF7047002814BF20F0010052
:1037500041F100014FEA410313F5001F38BF7047E4
:10376000A1F1C04100F0CEBA012A43EB0302AEF151
:10377000200EDEF11F0C32BF4FF0000C23FA0EF3C7
:1037800010EB030041EB0451B4EB115FD0D0A1EB7F
:10379000045101F58011490801EB0451BDE81040C6
:1037A0005FEA30000CD350F1000038BF12FA0CFC75
:1037B00006D1C9E7401C38BF5FEA4202CAD1C3E75D
:1037C0004FEA410313F5001F38BF7047A1F1C04114
:1037D00000F098BA9CEA445F08D0BDE8104011EAB6
:1037E0005C0F04BF01F0004100207047BDE81040AD
:1037F00070B500F039FA00BF64FBBE3E0000E0FF88
:1038000002494FF0000000F0FEBC00BF0000F87F4E
:103810002DE9C04130B4DFF8A0C23CEA111418BF52
:103820003CEA131400F0EC8081EA03051CEA111451
:1038300044EAD57418BF1CEA131500F0C780A4EB46
:1038400005044FF0004545EAC12145EAC32341EA9A
:10385000505143EA525304F17F74994204F5003405
:103860004FEAC0204FEAC22208BF904200F09C807D
:103870004FEA13650FF24016765D4FEA134506FBDB
:1038800005F7C7F1807706FB07F74FEAD737A7FBA5
:1038900003687642C8F58038A7FB06CE38BFA8F18A
:1038A000010807FB08E64FF0000EA6FB028CE6FBC2
:1038B00003CEDCF1000CCEF1004E38BFAEF1010EAC
:1038C000A6FB0C584FF000074FF00005E6FB0E87F3
:1038D000A1FB08C6A0FB07CE16EB0E0645F10005BE
:1038E000E1FB076515F1E04E7EBFA4F580345FEA89
:1038F00046066D4116F1800745F100054FEA17278E
:103900004FEA066647EA0567A6F1DE46B6F1805F34
:103910004FEA15251FD9384624F0010C05EBC47178
:10392000BCF1FE6F01EB0C1102D8F0BCBDE80081C8
:1039300024425CBF01F5801E9EEAC47F02D4F0BC25
:10394000BDE80081244238D4F0BCA1F1C041BDE8FB
:10395000004100F0D7B94FEAD22242EA43524FEA7F
:10396000D323A7FB02864FEAD02040EA415007FB51
:1039700003661EEA0E0F4FEAD12105FB026658BF0F
:10398000A6EB0056B6EB00564FEA520E4EEAC37E47
:1039900018EB0E0E56EB530EBDD518EB02085E4128
:1039A0007F1C55F10005B6E74FF480154FF0000776
:1039B0004FF000064FF00008ADE7F0BC4FF00000FC
:1039C00001F1C04101F00041BDE8008111EA0C1F86
:1039D0000CEA131500D00CE013EA0C1F00F0258050
:1039E0004FF00000F0BC81EA030101F00041BDE8A6
:1039F0000081F0BCBDE8004181EA030100F082B91A
:103A0000F0BCBDE8004170B500F02EF9097EFC3E27
:103A100000F007B881EA03014FF0000001F0004117
:103A2000704781EA030100F06DB9F0BCBDE80041C8
:103A30004FF0000021497047FFFDFBF9F7F5F4F264
:103A4000F0EEEDEBE9E8E6E4E3E1E0DEDDDBDAD839
:103A5000D7D5D4D3D1D0CFCDCCCBCAC8C7C6C5C497
:103A6000C2C1C0BFBEBDBCBBBAB9B8B7B6B5B4B3AE
:103A7000B2B1B0AFAEADACABAAA9A8A8A7A6A5A499
:103A8000A3A3A2A1A09F9F9E9D9C9C9B9A9999985D
:103A90009797969595949393929191908F8F8E8E00
:103AA0008D8C8C8B8B8A898988888787868585848D
:103AB00084838382828181800000FF070000F87F79
:103AC00010F0004248BF4042B0FA80F310FA03F110
:103AD0000AD0C3F11D0303F580634FEA415002EBA6
:103AE000035202EBD12170474FF000007047B0FA4B
:103AF00080F310FA03F10AD0C3F11D0303F58063CC
:103B00004FEA41504FEA035202EBD12170474FF088
:103B100000007047DFF848C170B51CEA111E1EBFD7
:103B20001CEA13159EEA0C0F95EA0C0F00F06F804B
:103B300081EA030423EA4C134EEAD47E21EA4C11B5
:103B400041F4801143F48013AE44A1FB024CA0FB6E
:103B50000365AEF17F7E361955EB0C05A1FB034CD6
:103B60004CF10003A0FB021C16EB0C06654153F15F
:103B70000003094218BF46F0010613F4007F0BD181
:103B80004FEA03314FEA0530340341EA155140EA68
:103B900016506FF003020AE04FEAC3214FEAC52036
:103BA000F40241EA555140EA56506FF0020202EB2E
:103BB0002E4201EB025585EACE710AD05FEA440C31
:103BC00018BF24F0004450F1000041F1000120EA48
:103BD000D47040F2FE7C624500D270BDA84214BF92
:103BE0004FF080444FF04044002E08BF0024BEF147
:103BF000806FA8BFA1F1C041BDE8704080F2828013
:103C00004FF0000001F1C04101F0004170479EEA11
:103C10000C0F0CEA131518BF95EA0C0F06D04FF0E5
:103C2000000081EA030E0EF0004170BD00F01CF8A8
:103C30008900013E00F007B800F009B84FEA430CD4
:103C40005FEA5C5C08D081EA030100F05BB84FEAF0
:103C5000410C5FEA5C5CF6D14FF00000014970470F
:103C60000000FF070000F87F0EF1020E2EF0030E99
:103C70005EF8046B364205D4012A43EB030515F5C3
:103C8000001F12D8012841EB010C1CF5001F0CD8B5
:103C90000ED14FEAD17C15F5001F0CEB4C0C0CF14A
:103CA000020C08BF4CEBD37C04E04FF0080C01E0A1
:103CB0004FEAD37C0CEB4C0526FA05F606F0070616
:103CC000B6F1040C06D20EEB860CBDE870404CF049
:103CD000010C6047DFE80CF0090B02024FF00041D5
:103CE0004FF00000A1F5002170BD194610460128D3
:103CF00051EB010418BFD4F5001484BF002001F07B
:103D0000004170BD0808A0F500114FEA310170476D
:103D10002DE9F04101F5801CBCF5001FC0F2C38005
:103D20004FEA115C21EA0C510CF1FD0C41F48011B9
:103D30005FEA5C0C0CF5C07C01D3400049413DA416
:103D4000890241EA905187028E0E0A0CA45D04FBA1
:103D500004F602FB06F6C6F14046A4FB0662F60D29
:103D600046EA422606FB06F4A4FB01235242C3F1B5
:103D7000404338BF5B1EA6FB02420024E6FB03243F
:103D8000D20B42EA4446A6FB0623A1FB02E2A3FBB8
:103D900007E4A4184FF0000252F10002E3FB0142D5
:103DA0006442C2F1404E38BFAEF1010EA6FB0423BF
:103DB0004FF00002E6FB0E32A2FB03464FF0000478
:103DC000B61954F10004E2FB0264A1FB06E6A4FB71
:103DD00007E816EB08064FF0000858F10008E4FB6E
:103DE00001687642C8F1405838BFA8F10108A2FB2B
:103DF00006E4A3FB08E52D194FF0000454F100047C
:103E0000E2FB0854A1FB05E6A7FB04E818EB060853
:103E10004FF0000656F10006E1FB048618F120057C
:103E200056F10006A809A8F11B08B10908F03F08DF
:103E3000B8F10A0F40EA86601CD901EB0C51BDE8CD
:103E4000F08100BFFCF5EEE8E2DDD8D3CFCBC7C3ED
:103E5000C0BDB9B6B4B1AEACA9A7A5A3A19F9D9BA7
:103E60009A9896959392908F8D8C8B89888786856A
:103E700084838281A0FB006800FB01F208EB42080A
:103E8000B8EB872807D5341858EB0104D5D5401C6A
:103E900051F10001D1E7341A78EB0104CDD4401E72
:103EA00071F10001C9E75FEA4C0C5FEA9C5C0DD13F
:103EB00005D34FF0000001F00041BDE8F081BDE8FE
:103EC000F04170B5FFF7D0FE6DDBFFBEBDE8F041FD
:103ED0004FF00000004970470000F87F10B591EAEC
:103EE000030F48BF83F000433FF5ECAB841A71EB3E
:103EF000030E07D212198EF0004E43EB0E03001B87
:103F000061EB0E01DFF8A4C14FEA1154A4EB135E7C
:103F10001CEA430F18BF9CEA445F00F0B08023EA1C
:103F20006C03524221EA0451C3EB6C0338BF5B1EA1
:103F3000DEF1200C25D322FA0EFC10EB0C0043FA24
:103F40000EFC41EB0C01CEF1200C03FA0CFC10EB43
:103F50000C0051F10001CEF1200C29D401EB0451E9
:103F6000BDE8104012FA0CF258BF7047401C1CBF4D
:103F7000B2F1004F704700280CBF491C20F001002F
:103F8000704712EB020C43EB030218BF4FF0010C19
:103F90004CEA4202AEF1200EDEF11E0C54D943FA77
:103FA0000EFC10EB0C0051F1FF31CEF11E0CD5D5FB
:103FB0000CF1010C12FA0CFC404141EB010101EB48
:103FC000445E5FEA5E5E10D901EB0451BDE810402B
:103FD00010EBDC7038BFBCF1004F18BF70470028F1
:103FE0000CBF491C20F00100704730D24FEAD42E9C
:103FF00011F5001124F400641BD0B1FA81F20B3AE0
:10400000A41AA41ED2F12003914030FA03F31943FD
:10401000904001EBCE71002C01EB0451BDE8104043
:10402000A8BF704701F1C0414FF0000001F000410E
:104030007047B0FA80F310FA03F100D110BDE41A12
:10404000173C4805C90AE4E701EB045110BD4910CB
:1040500001EB0451BDE810404FEA300002E04FF0A0
:10406000000170474A0008BF0042F8D0B2F5001FB7
:1040700028BF704701F000414FF0000070479CEAF4
:10408000445F07D0BDE8104011EA5C0F04BF002177
:1040900000207047BDE8104070B5FFF7E5FD00BF98
:1040A00040DFF63E83F00041104670470000E0FF1D
:1040B00043004FEAD30C4FEA3C0C43401FBF40077C
:1040C0000CF1605113F0FE4F70471CF0006F03D1EC
:1040D00000200CF0004170470CF0004343EA5070A0
:1040E00010B540EACC0000F03AF800BF00000092A2
:1040F0004FEA0001FFF706BE4FF000414FF000000D
:10410000A1F500217047000010F0004148BF404277
:10411000B0FA80F310FA03F2C3F19D030BD051EA19
:10412000C35101EB1220530638BF704700F1010064
:1041300008BF20F001007047B0FA80F310FA03F2D4
:10414000C3F19D030AD0D90501EB1220530638BFF5
:10415000704700F1010008BF20F0010070470EF128
:10416000020E2EF0030E5EF8044B244204D44FEAF4
:104170004102B2F17F4F11D84FEA4003B3F17F4FB4
:104180000CD80ED14FEAD07CB2F17F4F0CEB4C0C27
:104190000CF1020C08BF4CEBD17C04E04FF0080C92
:1041A00001E04FEAD17C0CEB4C0324FA03F404F059
:1041B0000704B4F1040C06D20EEB840CBDE81040E9
:1041C0004CF0010C6047DFE80CF0070802024FF0EA
:1041D0000040A0F5800010BD0846420018BFD2F193
:1041E000807288BF00F0004010BD10B5FCF7E4FC01
:1041F0004FF00001016010BDFF2141EAD050C00521
:104200007047FCF7F8B90CF00F03092B08BF082022
:1042100000F05B800A2B0BD0082B18BF704708BF3B
:104220001CF0400F0AD04FF000004FF00001704723
:104230001CF0400F18BF4FF0004070471CF0100FEB
:1042400008D020F0704300F07F4242EAD3014FEAE9
:104250004370704700F0604021F07F4242EA000264
:1042600001F07F4040EA727070474FF0FF0C4CF451
:10427000E06C1CEA11531CBF9CEA030C9445C2BFBE
:10428000DA4201EB02517047002B0DD0BCF1000F58
:104290000FD0002A01F00041A4BF41F0E04141F0FD
:1042A0007F614FF00000704701F000414FF00000C7
:1042B000704750EA01334FF09B0C18BF4CF0806CF4
:1042C0007FF49EAAAFF3008070471CF4801F11D0CA
:1042D0001CF4E02F03D06FEACC31490070474FF057
:1042E0004050EFF3008222F0704242EA000282F373
:1042F000008870474FF00000704700000100020086
:10430000010003000100020001000400010002009E
:10431000010003000100020001000500010002008D
:10432000010003000100020001000400010002007E
:10433000010003000100020001000600010002006C
:10434000010003000100020001000400010002005E
:10435000010003000100020001000500010002004D
:10436000010003000100020001000400010002003E
:10437000010003000100020001000700010002002B
:10438000010003000100020001000400010002001E
:10439000010003000100020001000500010002000D
:1043A00001000300010002000100040001000200FE
:1043B00001000300010002000100060001000200EC
:1043C00001000300010002000100040001000200DE
:1043D00001000300010002000100050001000200CD
:1043E00001000300010002000100040001000200BE
:1043F0000100030001000200010000000240000073
:10440000000000A00000000005400000000000C8FF
:10441000000000000C4000000000409C0000000074
:10442000194000000020BCBE000000003440000025
:10443000BFC91B8E00000004B5400000504BCFD018
:104440006607E2CF010000006C4100003E8251AAE5
:10445000DFEEA73401000000D9420000DCB5A0E285
:104460003A301F97FFFFFFFFB4450000FD25A0C8AD
:10447000E9A3C14FFFFFFFFFFF3F000000000080E6
:1044800000000000FF3F000000000080000000006E
:10449000CC44000800000020C000000054010008C7
:1044A0008C450008C0000020101E000070010008AC
:1044B0001C00000043000000F8FFFFFF0C0000009C
:1044C0000E0000000F0000002E00000000000000A1
:1044D00000000000000000000000000000000000DC
:1044E00000000000000000000000000000000000CC
:1044F00000000000000000000000000000000000BC
:10450000000000000000000000300000000000007B
:10451000000000000000000000000000000000009B
:10452000000000000000000000000000000000008B
:104530000000000000000000000000000204060867
:104540000000000001020304010203040607080939
:10455000000000000000000000000000000000005B
:10456000000000000000000000000000000000004B
:10457000000000000000000000000000000000003B
:0C4580000000000000000000000000002F
:0400000508000119D5
:00000001FF
